:100982002D2D2D2E2D002057656C636F6D65205423
:100992006F205573652000576C656374726F6E69C2
:1009A20063205363616C650057453A302E30303016
:1009B2002050523A30302E30004D4F4E45593A2099
:1009C20020302E303020202020002D2E2D2D2D00E5
:100AFB00041600000000040800000000040C0000B5
:0E0B0B000000041100000000C100C101C10281
:10091C007F8C120B4FE47B64FAF9F8C0007821123B
:10092C0003E3D000120309EF2430FF120B64E47BC5
:10093C0064FAF9F8C00078211203E3D0001203091D
:10094C00AC00AD01AE02AF03E47B0AFAF9F8120376
:10095C0009EF2430FF120B647F2E120B64E47B0A28
:10096C00FAF9F8C00078211203E3D000120309EB66
:06097C002430FF020B64B1
:10078C007F83120B4FE47BE87A03F9F8AF14AE13B6
:10079C00AD12AC111209D2EF2430FF120B647F2E74
:1007AC00120B64E47BE87A03F9F8AF14AE13AD12C4
:1007BC00AC111209D2AC00AD01AE02AF03E47B6404
:1007CC00FAF9F81209D2EF2430FF120B64E47B64BF
:1007DC00FAF9F8AF14AE13AD12AC111209D2AC0089
:1007EC00AD01AE02AF03E47B0AFAF9F81209D2EFBD
:1007FC002430FF120B64E47B0AFAF9F8AF14AE1341
:0E080C00AD12AC111209D2EB2430FF020B64C6
:10042100E47F0F7E27FDFC78251203EFD31203BF73
:10043100400E7FC6120B4F7BFF7A097982020A9523
:10044100E47FE87E03FDFC78251203EFC31203BFAE
:10045100401E7FC6120B4FE47BE87A03F9F8C00017
:1004610078251203E3D000120309EF2430FF80182E
:10047100E47F64FEFDFC78251203EFC31203BF4045
:100481005E7FC6120B4F7F20120B64E47BE87A0378
:10049100F9F8C00078251203E3D000120309AC007B
:1004A100AD01AE02AF03E47B64FAF9F8120309EF80
:1004B1002430FF120B64E47B64FAF9F8C00078255C
:1004C1001203E3D000120309AC00AD01AE02AF0389
:1004D100E47B0AFAF9F8120309EF2430FF8067E49C
:1004E1007F0AFEFDFC78251203EFC31203BF7FC60E
:1004F100403B120B4F7F20120B647FC7120B4F7FC3
:1005010020120B64E47B64FAF9F8C0007825120329
:10051100E3D000120309AC00AD01AE02AF03E47BEE
:100521000AFAF9F8120309EF2430FF8019120B4F70
:100531007F20120B647FC7120B4F7F20120B647F49
:10054100C8120B4F7F30120B647F2E120B64E47BB9
:100551000AFAF9F8C00078251203E3D00012030962
:08056100EB2430FF120B6422B1
:0D0B8700782112040800000000E4F510229F
:0E0B7900D2A9758901758A06758CF8D28C2276
:03000B00020B1ACB
:040B1A00C0E0C0D0A7
:100B1E00758A06758CF8051AE51AC394644005D2D9
:040B2E0000751A0034
:050B3200D0D0D0E0323C
:1006E5008F1BE51B24F65015700302076F1470036A
:1006F50002077924FC700302078802078BE5107056
:10070500447F64FEFDFC78211203EFC31203BF5042
:100715006FE47F0AFEFDFC78211203EF12027EA82A
:1007250004A905AA06AB07E51B75F00AA4FFE4FCBE
:10073500FDEB2FFFEA35F0FEED39FDEC38FC7821B5
:100745001203FC803BE510B4011E78211203EFE48F
:10075500FCFDFEEB251BFFEE3AFEED39FDEC38FC0A
:1007650078211203FC7510028016120A1612091C54
:10077500E4F51022782112040800000000E4F510C9
:0707850002091C751001229E
:1008A600120B37C2AF120B87120B79D2AF7F8012B1
:1008B6000B4F7BFF7A097988120A957FC0120B4F7E
:1008C6007BFF7A097999120A95120A167F80120B14
:1008D6004F7BFF7A0979AA120A957FC0120B4F7BCC
:1008E600FF7A0979BB120A9512091C300005120518
:1008F60069C20012062D8F15E515C3941050EC122F
:1009060006E5C2907F327E00120ABBD2907FC87E77
:0609160000120ABB80D5AF
:10056900120A588F148E138D128C11C3E514950B32
:10057900F514E513950AF513E5129509F512E51138
:100589009508F511AF14AE13AD12FC1201A67B66E6
:100599007AE679E57843120109E4FBFA79A078C093
:1005A9001200151201E4E48F148E13F512F5117F70
:1005B900107E27FDFCAB14AA13A912A811D31203AC
:1005C900A94012B290B2917F83120B4F7BFF7A0937
:1005D90079CC020A95AF14AE13AD12AC11EC4D4EA5
:1005E9004F7004D2918015E4FFFEFDFCAB14AA13F1
:1005F900A912A811D31203A94002C291D2901207DD
:100609008CAF14AE13AD12AC1178211203EF1202A4
:100619007EE47BE87A03F9F812030978251203FCD2
:040629001204212274
:100A1600120A588F0F8E0E8D0D8C0CE4F51CD29099
:100A2600D2917F647E00120ABBC2917F647E00125F
:100A36000ABB051CE51CC3940A40E3120A588F0B37
:100A46008E0A8D098C08C2907FF47E01120ABBD2F1
:010A5600900F
:010A5700227C
:100ABB00E4FDFCC3ED9FEC9E5015E4FBFA0BBB0071
:0F0ACB00010AEB647B4A70F50DBD00010C80E45D
:010ADA0022F9
:100ADB00E4FDFCC3ED9FEC9E5015E4FBFA0BBB0051
:0F0AEB00010AEB647B4A70F50DBD00010C80E43D
:010AFA0022D9
:100B4F00A907C2A57F017E00120ADBD2A7898012F6
:050B5F000ADBC2A72221
:100B6400A907D2A57F017E00120ADB8980D2A712D1
:050B74000ADBC2A7220C
:100A95008B1B8A1C891DAB1BAA1CA91D120265FF95
:100AA500D394004010120B647401251DF51DE43527
:060AB5001CF51C80E1228B
:100B3700C2A7C2A67F38120B4F7F0C120B4F7F063E
:080B4700120B4F7F01020B4F5E
:03000300000022D8
:100A5800D292120003C2937F007E007D007C0020AA
:100A680092FDE4FBD29378011203D0C29330920D29
:100A7800EF2401FFE43EFEE43DFDE43CFC0BBB1823
:0C0A8800E3D293ED6480FD120003C293E2
:010A9400223F
:10062D00E4F51BC2B3C2B2C2B1C2B030B40C30B526
:10063D000930B60630B7030206E2C2B0D2B3D2B269
:10064D00D2B1E4FF0FBF14FC20B4037F012220B50B
:10065D00037F022220B6037F032220B7037F0A22E5
:10066D00C2B1D2B3D2B2D2B0E4FF0FBF14FC20B4EA
:10067D00037F042220B5037F052220B6037F0622C7
:10068D0020B7037F0B22C2B2D2B3D2B1D2B0E4FFF6
:10069D000FBF14FC20B4037F072220B5037F08226F
:1006AD0020B6037F092220B7037F0C22C2B3D2B23A
:1006BD00D2B1D2B0E4FF0FBF14FC20B4037F0E22E1
:1006CD0020B5037F002220B6037F0F2220B7037FC2
:0706DD000D227F63227F6301
:0106E40022F3
:10000E00020250E86480F8E933E83360110460F0CE
:10001E00ED33EC337009E8FCE9FDEAFEEBFF220458
:10002E0060DED3EB9FEA9EE99DE8C2E78CF0C2F753
:10003E0095F0400CE8CCF8E9CDF9EACEFAEBCFFB1F
:10004E0012021B85D0F05804700320D5B3E804705B
:10005E00075002B2D502025A92D5EC0460F7E4CCF6
:10006E00C0E0C398F8603B94186008400DD0E0FBE8
:10007E00020232E4FBFAC9FC8028E830E406E4C947
:10008E00FBE4CAFCE830E305E4C9CACBFCE854073C
:10009E006010F8C3E913F9EA13FAEB13FBEC13FC47
:1000AE00D8F130F52FC3E49CFCEF9BFFEE9AFEEDEA
:1000BE0099FDD0E0FBEF4E4D4C701222DB03020295
:1000CE0057EC2CFCEF33FFEE33FEED33FDED30E756
:1000DE00EB020232EF2BFFEE3AFEED39FDD0E0FBE4
:1000EE0050130BBB000302025AED13FDEE13FEEF8D
:0800FE0013FFEC13FC020232B7
:1001060002025AEC5D046005E859047003020250CD
:1001160012021B580460F6EC4860F2EC7004FDFE17
:10012600FF22C860DB2481C85009C39860025006CC
:100136000202579850CAF582E9294B4A7005AB82EC
:1001460002024675F0007C1A7880C3EF9BEE9AEDAA
:1001560099400DC3EF9BFFEE9AFEED99FDE842F044
:10016600DC23ACF0D0E0FFD0E0FED0E0FDAB822097
:10017600E7101BEB60BAEC2CFCEF33FFEE33FEED21
:1001860033FD020232E803F830E705C0F075F000EF
:10019600EF2FFFEE33FEED33FD40B830E7C280AA05
:1001A60075F020800E75F010800575F0087D007ED4
:1001B600007F003392D530D50312039BEC334010F9
:1001C600EF33FFEE33FEED33FDEC33FCD5F0ED22DD
:0E01D600E5F0247EA2D513CC92E7CDCEFF2219
:1001E400EDD2E7CD33EC3392D524814006E4FFFE13
:1001F400FDFC22FCE4CFCECDCC24E0501174FF8072
:10020400EDC3CC13CCCD13CDCE13CECF13CF04700E
:07021400F030D5DE02039B70
:10021B00E9D2E7C933E833F892D5EDD2E7CD33EC29
:07022B0033FC5002B2D522A2
:10023200EC30E7100FBF000C0EBE00080DBD00042D
:100242000BEB6014A2D5EB13FCED92E7FD2274FFD9
:10025200FCFDFEFF22E480F8A2D574FF13FC7D8032
:03026200E480EF46
:0300000002081AD9
:0C081A00787FE4F6D8FD758128020861A3
:10026500BB010689828A83E0225002E722BBFE0297
:09027500E32289828A83E49322CA
:10027E00E88FF0A4CC8BF0A42CFCE98EF0A42CFC1F
:10028E008AF0EDA42CFCEA8EF0A4CDA8F08BF0A49D
:10029E002DCC3825F0FDE98FF0A42CCD35F0FCEBFC
:1002AE008EF0A4FEA9F0EB8FF0A4CFC5F02ECD39C1
:0F02BE00FEE43CFCEAA42DCE35F0FDE43CFC222E
:1002CD0075F008758200EF2FFFEE33FECD33CDCCE8
:1002DD0033CCC58233C5829BED9AEC99E58298406B
:1002ED000CF582EE9BFEED9AFDEC99FC0FD5F0D648
:1002FD00E4CEFBE4CDFAE4CCF9A88222B800C1B972
:10030D000059BA002DEC8BF084CFCECDFCE5F0CBAF
:10031D00F97818EF2FFFEE33FEED33FDEC33FCEBE8
:10032D0033FB10D703994004EB99FB0FD8E5E4F9A3
:10033D00FA227818EF2FFFEE33FEED33FDEC33FC90
:10034D00C933C910D7059BE99A4007EC9BFCE99A84
:10035D00F90FD8E0E4C9FAE4CCFB2275F010EF2FC9
:10036D00FFEE33FEED33FDCC33CCC833C810D707C9
:10037D009BEC9AE899400AED9BFDEC9AFCE899F804
:0E038D000FD5F0DAE4CDFBE4CCFAE4C8F92297
:1009D200C2D5E830E70FB2D5E4C39BFBE49AFAE450
:1009E20099F9E498F8EC30E717B2D5120A08120325
:1009F20009E4C39BFBE49AFAE499F9E498F88003CA
:100A020012030930D50DE4C39FFFE49EFEE49DFD71
:040A1200E49CFC2242
:0E039B00C3E49FFFE49EFEE49DFDE49CFC2273
:1003A900EB9FF5F0EA9E42F0E99D42F0EC6480C8CB
:0603B90064809845F0226B
:1003BF00EB9FF5F0EA9E42F0E99D42F0E89C45F094
:0103CF00220B
:1003D000E8600FEFC333FFEE33FEED33FDEC33FC8B
:0303E000D8F1222F
:0C03E300E6FC08E6FD08E6FE08E6FF2246
:0D03EF00E6FB08E6F908E6FA08E6CBF8227E
:0C03FC00ECF608EDF608EEF608EFF6222D
:10040800D083D082E493F608740193F608740293BB
:09041800F608740393F6740473F2
:100826000208A6E493A3F8E493A34003F68001F23A
:1008360008DFF48029E493A3F85407240CC8C333D3
:10084600C4540F4420C8834004F456800146F6DFA2
:10085600E4800B0102040810204080900AFBE47E2D
:10086600019360BCA3FF543F30E509541FFEE49397
:10087600A360010ECF54C025E060A840B8E493A35E
:10088600FAE493A3F8E493A3C8C582C8CAC583CA89
:10089600F0A3C8C582C8CAC583CADFE9DEE780BE41
:010B190000DB
:00000001FF
