:101084002D2D2D2E2D002057656C636F6D6520541A
:101094006F205573652000576C656374726F6E69B9
:1010A40063205363616C650057453A302E3030300D
:1010B4002050523A30302E30004D4F4E45593A2090
:1010C40020302E303020202020002D2E2D2D2D00DC
:10122B00041600000000040800000000040C00007D
:0E123B000000041100000000C100C101C1024A
:10101E007F8C121262E47B64FAF9F8C00078211218
:10102E000AEFD000120A15EF2430FF121277E47B7C
:10103E0064FAF9F8C0007821120AEFD000120A15EE
:10104E00AC00AD01AE02AF03E47B0AFAF9F8120A66
:10105E0015EF2430FF1212777F2E121277E47B0ADF
:10106E00FAF9F8C0007821120AEFD000120A15EB37
:06107E002430FF0212778E
:100E8E007F83121262E47BE87A03F9F8AF14AE1393
:100E9E00AD12AC111210D4EF2430FF1212777F2E48
:100EAE00121277E47BE87A03F9F8AF14AE13AD12A1
:100EBE00AC111210D4AC00AD01AE02AF03E47B64F2
:100ECE00FAF9F81210D4EF2430FF121277E47B6493
:100EDE00FAF9F8AF14AE13AD12AC111210D4AC0077
:100EEE00AD01AE02AF03E47B0AFAF9F81210D4EFAB
:100EFE002430FF121277E47B0AFAF9F8AF14AE131E
:0E0F0E00AD12AC111210D4EB2430FF0212779A
:100B2D00E47F0F7E27FDFC7825120AFBD3120ACB3A
:100B3D00400E7FC61212627BFF7A1079840211E596
:100B4D00E47FE87E03FDFC7825120AFBC3120ACB75
:100B5D00401E7FC6121262E47BE87A03F9F8C000EA
:100B6D007825120AEFD000120A15EF2430FF8018F5
:100B7D00E47F64FEFDFC7825120AFBC3120ACB400C
:100B8D005E7FC61212627F20121277E47BE87A0331
:100B9D00F9F8C0007825120AEFD000120A15AC0042
:100BAD00AD01AE02AF03E47B64FAF9F8120A15EF5A
:100BBD002430FF121277E47B64FAF9F8C00078252F
:100BCD00120AEFD000120A15AC00AD01AE02AF0350
:100BDD00E47B0AFAF9F8120A15EF2430FF8067E476
:100BED007F0AFEFDFC7825120AFBC3120ACB7FC6D5
:100BFD00403B1212627F201212777FC71212627F62
:100C0D0020121277E47B64FAF9F8C0007825120AF5
:100C1D00EFD000120A15AC00AD01AE02AF03E47BBC
:100C2D000AFAF9F8120A15EF2430FF801912126230
:100C3D007F201212777FC71212627F201212777FE8
:100C4D00C81212627F301212777F2E121277E47B58
:100C5D000AFAF9F8C0007825120AEFD000120A1529
:080C6D00EB2430FF1212772284
:0D129A007821120B1400000000E4F5102272
:0E128C00D2A9758901758A06758CF8D28C225C
:03000B0002119748
:04119700C0E0C0D024
:10119B00758A06758CF8051BE51B7002051AC3943E
:0F11AB00C8E51A94004008D200751A00751B00A1
:0511BA00D0D0D0E032AE
:100DE7008F1CE51C24F650157003020E7114700356
:100DF700020E7B24FC7003020E8A020E8DE5107032
:100E0700447F64FEFDFC7821120AFBC3120ACB5013
:100E17006FE47F0AFEFDFC7821120AFB12098AA8FB
:100E270004A905AA06AB07E51C75F00AA4FFE4FCB4
:100E3700FDEB2FFFEA35F0FEED39FDEC38FC7821AC
:100E4700120B08803BE510B4011E7821120AFBE45F
:100E5700FCFDFEEB251CFFEE3AFEED39FDEC38FC00
:100E67007821120B08751002801612111812101E25
:100E7700E4F510227821120B1400000000E4F510AD
:070E870002101E751001228C
:100FA80012124AC2AF12129A12128CD2AF7F80125A
:100FB80012627BFF7A10798A1211E57FC0121262E1
:100FC8007BFF7A10799B1211E51211187F8012129B
:100FD800627BFF7A1079AC1211E57FC01212627B36
:100FE800FF7A1079BD1211E512101E300005120C9F
:100FF80075C200120D2F8F15E515C3941050EC1211
:101008000DE7C2907F327E001211BFD2907FC87E5A
:06101800001211BF80D59B
:100C750012115A8F148E138D128C11C3E514950B16
:100C8500F514E513950AF513E5129509F512E51125
:100C95009508F511AF14AE13AD12FC1208A07BCD6B
:100CA5007A0C79F078431208031208DEE48F148E6B
:100CB50013F512F5117F107E27FDFCAB14AA13A9BD
:100CC50012A811D3120AB54012B290B2917F8312C5
:100CD50012627BFF7A1079CE0211E5AF14AE13AD27
:100CE50012AC11EC4D4E4F7004D2918015E4FFFE0D
:100CF500FDFCAB14AA13A912A811D3120AB5400220
:100D0500C291D290120E8EAF14AE13AD12AC117803
:100D150021120AFB12098AE47BE87A03F9F8120A20
:0A0D2500157825120B08120B2D2281
:1011180012115A8F0F8E0E8D0D8C0CE4F51DD29086
:10112800D2917F647E001211BFC2917F647E00124B
:1011380011BF051DE51DC3940A40E312115A8F0B18
:101148008E0A8D098C08C2907FF47E011211BFD2DD
:011158009006
:011159002273
:1011BF007C007D0A120978E4FDC3ED9FEC9E50156B
:1011CF00E4FBFA0BBB00010AEB647B4A70F50DBD23
:0511DF0000010C80E49A
:0111E40022E8
:10120B00E4FDFCC3ED9FEC9E5015E4FBFA0BBB0019
:0F121B00010AEB647B4A70F50DBD00010C80E405
:01122A0022A1
:10126200A907C2A57F017E0012120BD2A7898012A4
:05127200120BC2A722CF
:10127700A907D2A57F017E0012120B8980D2A7127F
:05128700120BC2A722BA
:1011E5008B1C8A1D891EAB1CAA1DA91E12095FFF37
:1011F500D3940040101212777401251EF51EE435B4
:061205001DF51D80E12231
:10124A00C2A7C2A67F381212627F0C1212627F06F0
:08125A001212627F0102126210
:0312A70000002222
:10115A00D2921212A7C2937F007E007D007C0020EB
:10116A0092FDE4FBD2937801120ADCC29330920D0D
:10117A00EF2401FFE43EFEE43DFDE43CFC0BBB181A
:0C118A00E3D293ED6480FD1212A7C29323
:011196002236
:100D2F00E4F51CC2B3C2B2C2B1C2B030B40C30B51C
:100D3F000930B60630B703020DE4C2B0D2B3D2B257
:100D4F00D2B1E4FF0FBF14FC20B4037F012220B502
:100D5F00037F022220B6037F032220B7037F0A22DC
:100D6F00C2B1D2B3D2B2D2B0E4FF0FBF14FC20B4E1
:100D7F00037F042220B5037F052220B6037F0622BE
:100D8F0020B7037F0B22C2B2D2B3D2B1D2B0E4FFED
:100D9F000FBF14FC20B4037F072220B5037F082266
:100DAF0020B6037F092220B7037F0C22C2B3D2B231
:100DBF00D2B1D2B0E4FF0FBF14FC20B4037F0E22D8
:100DCF0020B5037F002220B6037F0F2220B7037FB9
:070DDF000D227F63227F63F8
:010DE60022EA
:10080000020954EC5D046005E85904700302094ACA
:10081000120915580460F6EC4860F2EC7004FDFE15
:10082000FF22C860DB2481C85009C39860025006CB
:100830000209519850CAF582E9294B4A7005AB82EA
:1008400002094075F0007C1A7880C3EF9BEE9AEDA8
:1008500099400DC3EF9BFFEE9AFEED99FDE842F043
:10086000DC23ACF0D0E0FFD0E0FED0E0FDAB822096
:10087000E7101BEB60BAEC2CFCEF33FFEE33FEED20
:1008800033FD02092CE803F830E705C0F075F000ED
:10089000EF2FFFEE33FEED33FD40B830E7C280AA04
:1008A00075F020800E75F010800575F0087D007ED3
:1008B000007F003392D530D503120AA7EC334010E5
:1008C000EF33FFEE33FEED33FDEC33FCD5F0ED22DC
:0E08D000E5F0247EA2D513CC92E7CDCEFF2218
:1008DE00EDD2E7CD33EC3392D524814006E4FFFE12
:1008EE00FDFC22FCE4CFCECDCC24E0501174FF8071
:1008FE00EDC3CC13CCCD13CDCE13CECF13CF04700E
:07090E00F030D5DE020AA75C
:10091500E9D2E7C933E833F892D5EDD2E7CD33EC28
:0709250033FC5002B2D522A1
:10092C00EC30E7100FBF000C0EBE00080DBD00042C
:10093C000BEB6014A2D5EB13FCED92E7FD2274FFD8
:10094C00FCFDFEFF22E480F8A2D574FF13FC7D8031
:03095C00E480EF45
:03000000020F1CD0
:0C0F1C00787FE4F6D8FD758128020F6391
:10095F00BB010689828A83E0225002E722BBFE0296
:09096F00E32289828A83E49322C9
:10097800EF8DF0A4A8F0CF8CF0A428CE8DF0A42E93
:02098800FE224D
:10098A00E88FF0A4CC8BF0A42CFCE98EF0A42CFC0C
:10099A008AF0EDA42CFCEA8EF0A4CDA8F08BF0A48A
:1009AA002DCC3825F0FDE98FF0A42CCD35F0FCEBE9
:1009BA008EF0A4FEA9F0EB8FF0A4CFC5F02ECD39AE
:0F09CA00FEE43CFCEAA42DCE35F0FDE43CFC221B
:1009D90075F008758200EF2FFFEE33FECD33CDCCD5
:1009E90033CCC58233C5829BED9AEC99E582984058
:1009F9000CF582EE9BFEED9AFDEC99FC0FD5F0D635
:100A0900E4CEFBE4CDFAE4CCF9A88222B800C1B95E
:100A19000059BA002DEC8BF084CFCECDFCE5F0CB9C
:100A2900F97818EF2FFFEE33FEED33FDEC33FCEBD5
:100A390033FB10D703994004EB99FB0FD8E5E4F990
:100A4900FA227818EF2FFFEE33FEED33FDEC33FC7D
:100A5900C933C910D7059BE99A4007EC9BFCE99A71
:100A6900F90FD8E0E4C9FAE4CCFB2275F010EF2FB6
:100A7900FFEE33FEED33FDCC33CCC833C810D707B6
:100A89009BEC9AE899400AED9BFDEC9AFCE899F8F1
:0E0A99000FD5F0DAE4CDFBE4CCFAE4C8F92284
:1010D400C2D5E830E70FB2D5E4C39BFBE49AFAE447
:1010E40099F9E498F8EC30E717B2D512110A120A0C
:1010F40015E4C39BFBE49AFAE499F9E498F88003B5
:10110400120A1530D50DE4C39FFFE49EFEE49DFD55
:04111400E49CFC2239
:0E0AA700C3E49FFFE49EFEE49DFDE49CFC2260
:100AB500EB9FF5F0EA9E42F0E99D42F0EC6480C8B8
:060AC50064809845F02258
:100ACB00EB9FF5F0EA9E42F0E99D42F0E89C45F081
:010ADB0022F8
:100ADC00E8600FEFC333FFEE33FEED33FDEC33FC78
:030AEC00D8F1221C
:0C0AEF00E6FC08E6FD08E6FE08E6FF2233
:0D0AFB00E6FB08E6F908E6FA08E6CBF8226B
:0C0B0800ECF608EDF608EEF608EFF62219
:100B1400D083D082E493F608740193F608740293A8
:090B2400F608740393F6740473DF
:100F2800020FA8E493A3F8E493A34003F68001F228
:100F380008DFF48029E493A3F85407240CC8C333CA
:100F4800C4540F4420C8834004F456800146F6DF99
:100F5800E4800B010204081020408090122BE47EEC
:100F6800019360BCA3FF543F30E509541FFEE4938E
:100F7800A360010ECF54C025E060A840B8E493A355
:100F8800FAE493A3F8E493A3C8C582C8CAC583CA80
:100F9800F0A3C8C582C8CAC583CADFE9DEE780BE38
:0112490000A4
:00000001FF
