:100880002D2D2D2E2D002057656C636F6D65205426
:100890006F205573652000576C656374726F6E69C5
:1008A00063205363616C650057453A302E30303019
:1008B0002050523A30302E30004D4F4E45593A209C
:1008C00020302E303020202020002D2E2D2D2D00E8
:1009F900041600000000040800000000040C0000B8
:0E0A09000000041100000000C100C101C10284
:10081A007F8C120A4DE47B64FAF9F8C00078211241
:10082A0002EBD000120211EF2430FF120A62E47BBD
:10083A0064FAF9F8C00078211202EBD00012021112
:10084A00AC00AD01AE02AF03E47B0AFAF9F812027A
:10085A0011EF2430FF120A627F2E120A62E47B0A29
:10086A00FAF9F8C00078211202EBD000120211EB5B
:06087A002430FF020A62B7
:10068A007F83120A4DE47BE87A03F9F8AF14AE13BC
:10069A00AD12AC111208D0EF2430FF120A627F2E7D
:1006AA00120A62E47BE87A03F9F8AF14AE13AD12CA
:1006BA00AC111208D0AC00AD01AE02AF03E47B640A
:1006CA00FAF9F81208D0EF2430FF120A62E47B64C8
:1006DA00FAF9F8AF14AE13AD12AC111208D0AC008F
:1006EA00AD01AE02AF03E47B0AFAF9F81208D0EFC3
:1006FA002430FF120A62E47B0AFAF9F8AF14AE1347
:0E070A00AD12AC111208D0EB2430FF020A62CF
:10032900E47F0F7E27FDFC78251202F7D31202C75E
:10033900400E7FC6120A4D7BFF7A08798002099325
:10034900E47FE87E03FDFC78251202F7C31202C799
:10035900401E7FC6120A4DE47BE87A03F9F8C00013
:1003690078251202EBD000120211EF2430FF801819
:10037900E47F64FEFDFC78251202F7C31202C74030
:100389005E7FC6120A4D7F20120A62E47BE87A0377
:10039900F9F8C00078251202EBD000120211AC0066
:1003A900AD01AE02AF03E47B64FAF9F8120211EF72
:1003B9002430FF120A62E47B64FAF9F8C000782558
:1003C9001202EBD000120211AC00AD01AE02AF0374
:1003D900E47B0AFAF9F8120211EF2430FF8067E48E
:1003E9007F0AFEFDFC78251202F7C31202C77FC6F9
:1003F900403B120A4D7F20120A627FC7120A4D7FC5
:1004090020120A62E47B64FAF9F8C0007825120226
:10041900EBD000120211AC00AD01AE02AF03E47BD8
:100429000AFAF9F8120211EF2430FF8019120A4D65
:100439007F20120A627FC7120A4D7F20120A627F4B
:10044900C8120A4D7F30120A627F2E120A62E47BBB
:100459000AFAF9F8C00078251202EBD0001202114D
:08046900EB2430FF120A6222AD
:0D0A8500782112031000000000E4F510229B
:0E0A7700D2A9758901758A06758CF8D28C2279
:03000B00020A18CE
:040A1800C0E0C0D0AA
:100A1C00758A06758CF8051AE51AC394644005D2DC
:040A2C0000751A0037
:050A3000D0D0D0E0323F
:1005E3008F1BE51B24F65015700302066D14700370
:1005F30002067724FC7003020686020689E5107062
:10060300447F64FEFDFC78211202F7C31202C75037
:100613006FE47F0AFEFDFC78211202F7120186A81F
:1006230004A905AA06AB07E51B75F00AA4FFE4FCC1
:10063300FDEB2FFFEA35F0FEED39FDEC38FC7821B8
:10064300120304803BE510B4011E78211202F7E483
:10065300FCFDFEEB251BFFEE3AFEED39FDEC38FC0D
:100663007821120304751002801612091412081A55
:10067300E4F51022782112031000000000E4F510C5
:0706830002081A75100122A4
:1007A400120A35C2AF120A85120A77D2AF7F8012BD
:1007B4000A4D7BFF7A0879861209937FC0120A4D8D
:1007C4007BFF7A0879971209931209147F80120A21
:1007D4004D7BFF7A0879A81209937FC0120A4D7BDA
:1007E400FF7A0879B912099312081A300005120425
:1007F40071C20012052B8F15E515C3941050EC122D
:1008040005E3C2907F327E001209B9D2907FC87E80
:06081400001209B980D5B5
:100471001209568F148E138D128C11C3E514950B2E
:10048100F514E513950AF513E5129509F512E51131
:100491009508F511AF14AE13AD12FC1200AE7BCD71
:1004A1007A0C79CD78431200111200ECE48F148E8E
:1004B10013F512F5117F107E27FDFCAB14AA13A9C9
:1004C10012A811D31202B14012B290B2917F8312DD
:1004D1000A4D7BFF7A0879CA020993AF14AE13ADB6
:1004E10012AC11EC4D4E4F7004D2918015E4FFFE19
:1004F100FDFCAB14AA13A912A811D31202B1400238
:10050100C291D29012068AAF14AE13AD12AC11781B
:10051100211202F7120186E47BE87A03F9F812024C
:0A05210011782512030412032922A9
:100914001209568F0F8E0E8D0D8C0CE4F51CD2909F
:10092400D2917F647E001209B9C2917F647E001265
:1009340009B9051CE51CC3940A40E31209568F0B40
:100944008E0A8D098C08C2907FF47E011209B9D2F7
:010954009012
:01095500227F
:1009B900E4FDFCC3ED9FEC9E5015E4FBFA0BBB0074
:0F09C900010AEB647B4A70F50DBD00010C80E460
:0109D80022FC
:1009D900E4FDFCC3ED9FEC9E5015E4FBFA0BBB0054
:0F09E900010AEB647B4A70F50DBD00010C80E440
:0109F80022DC
:100A4D00A907C2A57F017E001209D9D2A7898012FC
:050A5D0009D9C2A72227
:100A6200A907D2A57F017E001209D98980D2A712D7
:050A720009D9C2A72212
:100993008B1B8A1C891DAB1BAA1CA91D12016DFF91
:1009A300D394004010120A627401251DF51DE4352D
:0609B3001CF51C80E1228E
:100A3500C2A7C2A67F38120A4D7F0C120A4D7F0647
:080A4500120A4D7F01020A4D67
:03000300000022D8
:10095600D2B7120003C2B67F007E007D007C002065
:10096600B7FDE4FBD2B678011202D8C2B630B70D95
:10097600EF2401FFE43EFEE43DFDE43CFC0BBB1826
:0C098600E3D2B6ED6480FD120003C2B69F
:010992002242
:10052B00E4F51BC292C293C294C29530960C3097DD
:10053B000930B20630B3030205E0C295D292D293D2
:10054B00D294E4FF0FBF14FC2096037F0122209767
:10055B00037F022220B2037F032220B3037F0A22F0
:10056B00C294D292D293D295E4FF0FBF14FC209683
:10057B00037F04222097037F052220B2037F0622EC
:10058B0020B3037F0B22C293D292D294D295E4FF75
:10059B000FBF14FC2096037F07222097037F0822AE
:1005AB0020B2037F092220B3037F0C22C292D29385
:1005BB00D294D295E4FF0FBF14FC2096037F0E223A
:1005CB002097037F002220B2037F0F2220B3037FEB
:0705DB000D227F63227F6304
:0105E20022F6
:10000E00020162EC5D046005E859047003020158B8
:10001E00120123580460F6EC4860F2EC7004FDFE09
:10002E00FF22C860DB2481C85009C39860025006C5
:10003E0002015F9850CAF582E9294B4A7005AB82DE
:10004E0002014E75F0007C1A7880C3EF9BEE9AED9C
:10005E0099400DC3EF9BFFEE9AFEED99FDE842F03D
:10006E00DC23ACF0D0E0FFD0E0FED0E0FDAB822090
:10007E00E7101BEB60BAEC2CFCEF33FFEE33FEED1A
:10008E0033FD02013AE803F830E705C0F075F000E1
:10009E00EF2FFFEE33FEED33FD40B830E7C280AAFE
:1000AE0075F020800E75F010800575F0087D007ECD
:1000BE00007F003392D530D5031202A3EC334010EB
:1000CE00EF33FFEE33FEED33FDEC33FCD5F0ED22D6
:0E00DE00E5F0247EA2D513CC92E7CDCEFF2212
:1000EC00EDD2E7CD33EC3392D524814006E4FFFE0C
:1000FC00FDFC22FCE4CFCECDCC24E0501174FF806B
:10010C00EDC3CC13CCCD13CDCE13CECF13CF047007
:07011C00F030D5DE0202A362
:10012300E9D2E7C933E833F892D5EDD2E7CD33EC22
:0701330033FC5002B2D5229B
:10013A00EC30E7100FBF000C0EBE00080DBD000426
:10014A000BEB6014A2D5EB13FCED92E7FD2274FFD2
:10015A00FCFDFEFF22E480F8A2D574FF13FC7D802B
:03016A00E480EF3F
:03000000020718DC
:0C071800787FE4F6D8FD75812802075FA9
:10016D00BB010689828A83E0225002E722BBFE0290
:09017D00E32289828A83E49322C3
:10018600E88FF0A4CC8BF0A42CFCE98EF0A42CFC18
:100196008AF0EDA42CFCEA8EF0A4CDA8F08BF0A496
:1001A6002DCC3825F0FDE98FF0A42CCD35F0FCEBF5
:1001B6008EF0A4FEA9F0EB8FF0A4CFC5F02ECD39BA
:0F01C600FEE43CFCEAA42DCE35F0FDE43CFC2227
:1001D50075F008758200EF2FFFEE33FECD33CDCCE1
:1001E50033CCC58233C5829BED9AEC99E582984064
:1001F5000CF582EE9BFEED9AFDEC99FC0FD5F0D641
:10020500E4CEFBE4CDFAE4CCF9A88222B800C1B96A
:100215000059BA002DEC8BF084CFCECDFCE5F0CBA8
:10022500F97818EF2FFFEE33FEED33FDEC33FCEBE1
:1002350033FB10D703994004EB99FB0FD8E5E4F99C
:10024500FA227818EF2FFFEE33FEED33FDEC33FC89
:10025500C933C910D7059BE99A4007EC9BFCE99A7D
:10026500F90FD8E0E4C9FAE4CCFB2275F010EF2FC2
:10027500FFEE33FEED33FDCC33CCC833C810D707C2
:100285009BEC9AE899400AED9BFDEC9AFCE899F8FD
:0E0295000FD5F0DAE4CDFBE4CCFAE4C8F92290
:1008D000C2D5E830E70FB2D5E4C39BFBE49AFAE453
:1008E00099F9E498F8EC30E717B2D512090612022C
:1008F00011E4C39BFBE49AFAE499F9E498F88003C5
:1009000012021130D50DE4C39FFFE49EFEE49DFD6D
:04091000E49CFC2245
:0E02A300C3E49FFFE49EFEE49DFDE49CFC226C
:1002B100EB9FF5F0EA9E42F0E99D42F0EC6480C8C4
:0602C10064809845F02264
:1002C700EB9FF5F0EA9E42F0E99D42F0E89C45F08D
:0102D7002204
:1002D800E8600FEFC333FFEE33FEED33FDEC33FC84
:0302E800D8F12228
:0C02EB00E6FC08E6FD08E6FE08E6FF223F
:0D02F700E6FB08E6F908E6FA08E6CBF82277
:0C030400ECF608EDF608EEF608EFF62225
:10031000D083D082E493F608740193F608740293B4
:09032000F608740393F6740473EB
:100724000207A4E493A3F8E493A34003F68001F240
:1007340008DFF48029E493A3F85407240CC8C333D6
:10074400C4540F4420C8834004F456800146F6DFA5
:10075400E4800B01020408102040809009F9E47E33
:10076400019360BCA3FF543F30E509541FFEE4939A
:10077400A360010ECF54C025E060A840B8E493A361
:10078400FAE493A3F8E493A3C8C582C8CAC583CA8C
:10079400F0A3C8C582C8CAC583CADFE9DEE780BE44
:010A170000DE
:00000001FF
